:020000020000FC
:0200000008C036
:0200040056C0E4
:02000C0064C0CE
:1000100085C008E00EBF0FEF0DBF08EF0AB900E082
:100020000BB901E004B90CE305B900E307B90FE02F
:1000300008B9449A459803E0A9E6B0E00C9301E0C2
:100040000DBB03E0A8E6B0E00C930CE3ABE6B0E038
:100050000C930FE0ACE6B0E00C9378941A9B01C0CF
:1000600001C0FCCF1FD1AAD000E1101709E0200782
:1000700018F030E574D0F2CF79D0D5D01AD19ED017
:1000800000E1101709E0200720F0E7D012D174D06A
:10009000E5CFD6D00ED192D000E1101709E02007AD
:1000A00020F0DBD006D172D0D9CFD7D002D178D012
:1000B000D5CF0F930FB70F9359D044984A9B05C0E3
:1000C000459AE3D04598E1D0F9CF4598449A0F91ED
:1000D0000FBF0F9118950F930FB70F938F931B9B23
:1000E00007C01C9905C01D9901C013C030EA02C0A9
:1000F00030E500C03BD04498459A31D0E1D036D0AD
:100100001B9BE9CF1C99E7CF1D99E5CF449A4598F1
:1001100047D08F910F910FBF0F9118950F930FB785
:100120000F933F931A9916C0309B08C0319B0CC0A7
:10013000329B0DC0339B05C019D00CC030E50FD0E9
:1001400009C030EA0CD006C030E909D003C030E65F
:1001500006D000C03F910F910FBF0F9118958F935C
:100160008BB18F70832B8BB98F9108958F938BB147
:100170008F708BB98F9108958F9330E9F0DF88EC01
:1001800084D08A95E9F7F2DF8F9108958F9330E656
:10019000E6DF88EC7AD08A95E9F7E8DF8F91089559
:1001A0008F9330E6DCDF8AEF70D08A95E9F78AEF2B
:1001B0006CD08A95E9F7DADF8F9108958F939F933A
:1001C000AF93289A8DD028989FEF8FEF199905C08B
:1001D0008A95E1F79A95C9F720C000E0E5E8F0E0DC
:1001E0000083E4E8F0E0008302E0E1E8F0E000836F
:1001F000AAE09FEF8FEF199B07C08A95E1F79A95C8
:10020000C9F7AA95B1F700C000E0E1E8F0E000838B
:10021000109184002091850002C01FEF2FEFAF9155
:100220009F918F9108958F936F937F938FE068E1F3
:1002300070EB20D08A95D9F77F916F918F910895B7
:100240008F936F937F938FE066E072EC13D08A9563
:10025000D9F77F916F918F9108958F936F937F93CB
:100260008FE06FE079EB06D08A95D9F77F916F9197
:100270008F910895F8945B9A2AD06A95E9F75B9874
:10028000789425D07A95E9F708954F935F9340E1EC
:100290005AEF000000005A95E1F74A95C9F75F91BF
:1002A0004F910895AF93AAE0F0DFAA95E9F7AF91D7
:1002B0000895BF93B9E1F6DFBA95E9F7BF910895C4
:1002C000BF93B2E3EFDFBA95E9F7BF9108954F937B
:1002D0004AEF0000000000004A95D9F74F910895B9
:0C02E0000F9305E30A95F1F70F910895C4
:00000001FF
